:200000000C9467000C948F000C948F000C948F000C948F000C948F000C948F000C94D10C42
:200020000C948F000C948F000C948F000C948F000C948F000C948F000C948F000C948F0048
:200040000C9466050C948F000C94A6080C94D8080C948F000C948F000C948F000C948F00DC
:200060000C948F000C948F0000000009000302000004050800000000000000000000000102
:200080000204081020408001020408102001020408102040804004040404040404040202C0
:2000A000020202020303030303030202030000000023002600290000000000250028002B35
:2000C0000000000000240027002A0002080911241FBECFEFD8E0DEBFCDBF15E0A0E0B1E0E1
:2000E000E4EAFDE102C005900D92A630B107D9F725E0A6E0B5E001C01D92A13CB207E1F702
:2001000010E0C7E6D0E004C02197FE010E94BB0EC636D107C9F70E942E0D0C94D00E0C941D
:20012000000061E08DE00E94ED0661E08CE00E94ED0661E08BE00E94ED0661E089E00E94AD
:20014000ED0661E085E00E94ED0661E086E00E94ED0661E08AE00E94ED0660E087E00E94AC
:20016000ED0660E087E00E94ED0660E088E00E94ED0660E088E00E94ED0660E08EE00E9486
:20018000ED0660E08FE00E94ED0660E080E10E94ED0660E081E10E94ED0660E082E10E9476
:2001A000ED0660E083E10E94ED0660E086E00E94ED0660E087E00E94ED0660E082E00E9458
:2001C000ED0660E083E00E94ED0626E040E855E260E070E08FE095E00C9444088FE095E04B
:2001E0000C94800962E071E08FE095E00E9484090E94EE006AEF70E080E090E00E94D505AB
:2002000082E00E945707892BD9F3089567E171E08FE095E00C9471096AE371E08FE095E046
:200220000C94710967E571E08FE095E00C94710969E671E08FE095E00E9471096BE671E0C7
:200240008FE095E00C94840926E430E040E050E06DEE71E08AE00E94360A66E470E080E031
:2002600090E00E94D50566E470E080E090E00E94D50526E430E040E050E06BED73E08AE02D
:200280000E94360A66E470E080E090E00E94D50566E470E080E090E00E94D50526E430E096
:2002A00040E050E063EE72E08AE00E94360A66E470E080E090E00E94D50566E470E080E01F
:2002C00090E00E94D50526E430E040E050E06EE672E08AE00E94360A66E470E080E090E06C
:2002E0000E94D50566E470E080E090E00E94D50526E430E040E050E06BED73E08AE00E947B
:20030000360A66E470E080E090E00E94D50526E430E040E050E063EE72E08AE00E94360A5E
:2003200066E470E080E090E00E94D5056DE870E080E090E00E94D50524ED30E040E050E075
:200340006EE672E08AE00E94360A64ED70E080E090E00E94D50566E470E080E090E00E94B2
:20036000D50526E430E040E050E06BE072E08AE00E94360A66E470E080E090E00E94D5056A
:2003800066E470E080E090E00E94D50526E430E040E050E066E174E08AE00E94360A66E4DC
:2003A00070E080E090E00E94D50566E470E080E090E00E94D50526E430E040E050E06FE002
:2003C00073E08AE00E94360A66E470E080E090E00E94D50566E470E080E090E00E94D505B2
:2003E00026E430E040E050E063E972E08AE00E94360A66E470E080E090E00E94D50566E479
:2004000070E080E090E00E94D50526E430E040E050E066E174E08AE00E94360A66E470E055
:2004200080E090E00E94D50526E430E040E050E06FE073E08AE00E94360A66E470E080E01E
:2004400090E00E94D5056DE870E080E090E00E94D50524ED30E040E050E063E972E08AE046
:200460000E94360A60E273E080E090E00C94D5050E9424018AE00C94BC0C61E08BE00E94D4
:20048000290761E08CE00E94290761E08DE00E94290767E771E08FE095E00E9484090E94D9
:2004A000EE0064EB71E08FE095E00E9484090E94EE000E94F20060E470E086E00E9467066E
:2004C0006AEF71E08FE095E00E9484090E94F2000E94EE0070E060E086E00E94670660E4F2
:2004E00070E085E00E9467066FE172E08FE095E00E9484090E94F2000E94EE0070E060E0CF
:2005000085E00E94670660E470E089E00E94670665E472E08FE095E00E9484090E94F20019
:200520000E94EE006AE672E08FE095E00E9484090E94EE0083E00E945707892BD9F36AE7B2
:2005400072E08FE095E00E9484090E94EE0086E00E944906EC0163E972E08FE095E00E943E
:200560007109BE01DD0F880B990B0E94760D2FE832EC45EF5EE30E94020E0E943E0D4AE087
:2005800050E08FE095E00E942F0A60EA72E08FE095E00E9484090E94EE0063EA72E08FE01F
:2005A00095E00E9484090E94EE000E94F2000E94EE0068EE72E08FE095E00E94710987E0D4
:2005C0000E9449060A973CF46AE070E080E090E00E94D505F4CF0E9418010E94EE0064E021
:2005E00073E08FE095E00E9484090E94EE000E94F20028EC30E040E050E060EA7FE08AE0EA
:200600000E94360A6AE373E08FE095E00E9484090E94EE0068EC70E080E090E00E94D505C5
:2006200062E673E08FE095E00E94710982E00E945707892BD9F382E00E945707019749F406
:200640000E94180164EF71E080E090E00E94D505F2CF0E94EE000E9412016FE773E08FE0D1
:2006600095E00E9471098EE00E944906893C91053CF06AE070E080E090E00E94D505F3CF5B
:200680000E9418010E94EE000E94120164E873E08FE095E00E9471098EE00E94490688359F
:2006A00092403CF46AE070E080E090E00E94D505F3CF0E9418010E94EE000E9412016AE83E
:2006C00073E08FE095E00E9471098FE00E944906853B91053CF06AE070E080E090E00E94D9
:2006E000D505F3CF0E9418010E94EE000E9412016FE873E08FE095E00E9471098FE00E94A3
:200700004906883592403CF46AE070E080E090E00E94D505F3CF0E9418010E94EE0062E98D
:2007200073E08FE095E00E94710980E10E944906833291403CF06AE070E080E090E00E9456
:20074000D505F3CF0E9418010E94EE006CEA73E08FE095E00E94710980E10E9449068039FE
:2007600091403CF46AE070E080E090E00E94D505F3CF0E9418010E94EE0065EC73E08FE072
:2007800095E00E94710981E10E944906833291403CF06AE070E080E090E00E94D505F3CF1B
:2007A0000E9418010E94EE006EED73E08FE095E00E94710981E10E944906803991403CF433
:2007C0006AE070E080E090E00E94D505F3CF0E9418010E94EE0067EF73E08FE095E00E94F7
:2007E000710983E10E944906813991403CF06AE070E080E090E00E94D505F3CF0E94180110
:200800000E94EE0066E074E08FE095E00E9471090E940C0182E10E944906843F91403CF4E7
:200820006AE070E080E090E00E94D505F3CF0E9418010E94EE0060E174E08FE095E00E94AA
:2008400071090E940C0187E00E945707892B39F46AE070E080E090E00E94D505F4CF0E94DC
:2008600018010E94EE006AE174E08FE095E00E9471090E940C0187E00E945707892B39F439
:200880006AE070E080E090E00E94D505F4CF0E9418010E94EE0064E274E08FE095E00E9444
:2008A00071090E940C0188E00E945707892B39F46AE070E080E090E00E94D505F4CF0E947B
:2008C00018010E94EE006EE274E08FE095E00E9484090E94EE0060ED77E080E090E00E9412
:2008E000D50562E574E08FE095E00E9471090E94060183E00E945707892B39F46AE070E0FC
:2009000080E090E00E94D505F4CF0E9418010E94EE006BE574E08FE095E00E9471090E9437
:20092000060182E00E945707892B39F46AE070E080E090E00E94D505F4CF0E9418010E9467
:20094000EE0065E674E08FE095E00E9471090E94060183E10E944906843F91403CF46AE0FE
:2009600070E080E090E00E94D505F3CF0E9418010E94EE006EE674E08FE095E00E94710926
:200980000E94060182E10E944906843F91403CF46AE070E080E090E00E94D505F3CF0E944C
:2009A00018010E94EE0067E774E08FE095E00E9471090E94060181E10E944906843F91405C
:2009C0003CF46AE070E080E090E00E94D505F3CF0E9418010E94EE0060E874E08FE095E074
:2009E0000E9471090E94060180E10E944906843F91403CF46AE070E080E090E00E94D50536
:200A0000F3CF0E9418010E94EE0069E874E08FE095E00E9471090E9406018FE00E9449061B
:200A2000843F91403CF46AE070E080E090E00E94D505F3CF0E9418010E94EE0062E974E060
:200A40008FE095E00E9471090E9406018EE00E944906843F91403CF46AE070E080E090E060
:200A60000E94D505F3CF0E9418010E94EE006CE974E08FE095E00E94840960E08BE00E94E4
:200A8000290760E08CE00E94290760E08DE00E94290760E089E00E94290760E085E00E9467
:200AA000290760E086E00E9429070E94EE006FEC74E08FE095E00E9484090E94380268EE0A
:200AC00073E080E090E00E94D505F9CF1F920F920FB60F9211242F933F938F939F93AF9398
:200AE000BF938091070590910805A0910905B0910A053091060523E0230F2D3758F5019681
:200B0000A11DB11D209306058093070590930805A0930905B0930A0580910B0590910C0556
:200B2000A0910D05B0910E050196A11DB11D80930B0590930C05A0930D05B0930E05BF91B9
:200B4000AF919F918F913F912F910F900FBE0F901F90189526E8230F0296A11DB11DD2CF09
:200B60003FB7F89480910B0590910C05A0910D05B0910E0526B5A89B05C02F3F19F0019618
:200B8000A11DB11D3FBFBA2FA92F982F8827BC01CD01620F711D811D911D42E0660F771F91
:200BA000881F991F4A95D1F708958F929F92AF92BF92CF92DF92EF92FF926B017C010E943F
:200BC000B0054B015C01C114D104E104F104E9F00E943D0D0E94B005681979098A099B09DD
:200BE000683E73408105910570F321E0C21AD108E108F10888EE880E83E0981EA11CB11CD6
:200C0000C114D104E104F10429F7FF90EF90DF90CF90BF90AF909F908F900895789484B596
:200C2000826084BD84B5816084BD85B5826085BD85B5816085BDEEE6F0E0808181608083F2
:200C4000E1E8F0E01082808182608083808181608083E0E8F0E0808181608083E1EBF0E085
:200C6000808184608083E0EBF0E0808181608083EAE7F0E08081846080838081826080839D
:200C80008081816080838081806880831092C1000895883020F08D3008F48DE08E50209106
:200CA000000190E4299F900111248770822B80937C0080917A00806480937A0080917A0077
:200CC00086FDFCCF809178009091790008951F93CF93DF93182FEB0161E00E94ED062097C0
:200CE00039F460E0812FDF91CF911F910C942907CF3FD10511F461E0F5CFE12FF0E0E85978
:200D0000FF4FE491E43031F140F4E230B1F0E330E1F0C038D1057CF7E4CFE83029F1E930D0
:200D200059F1E530B1F780918000806280938000D0938B00C0938A0004C084B5806884BDB5
:200D4000C7BDDF91CF911F91089584B5806284BDC8BDF7CF80918000806880938000D093DC
:200D60008900C0938800EDCF8091B00080688093B000C093B300E5CF8091B0008062809377
:200D8000B000C093B400DDCF843081F028F4823099F08330A9F008958830A9F08930C9F0C8
:200DA0008530B1F4809180008F7D03C0809180008F7780938000089584B58F7784BD089595
:200DC00084B58F7DFBCF8091B0008F778093B00008958091B0008F7DF9CFCF93DF9390E004
:200DE000FC01E158FF4F24918A569F4FFC0184918823C9F090E0880F991FFC01EF53FF4F2A
:200E0000A591B491FC01E954FF4FC591D49161110DC09FB7F8948C91209582238C93888154
:200E2000282328839FBFDF91CF910895623051F49FB7F8943C91822F809583238C93E88177
:200E40002E2BEFCF8FB7F894EC912E2B2C938FBFEACF1F93CF93DF93282F30E0F901E859E5
:200E6000FF4F8491F901E158FF4FD491F901EA56FF4FC491CC23A9F0162F81110E94C40681
:200E8000EC2FF0E0EE0FFF1FE954FF4FA591B4918FB7F894EC91111108C0D095DE23DC9338
:200EA0008FBFDF91CF911F910895DE2BF8CFCF93DF93282F30E0F901E859FF4F8491F90124
:200EC000E158FF4FD491F901EA56FF4FC491CC23A1F081110E94C406EC2FF0E0EE0FFF1FC5
:200EE000E355FF4FA591B491EC91ED2381E090E009F480E0DF91CF91089580E090E0FACF30
:200F0000FC01918D228D892F90E0805C9F4F821B91098F7399270895FC01918D828D9817A6
:200F200031F0828DE80FF11D858D90E008958FEF9FEF0895FC01918D828D981761F0A28D5B
:200F4000AE0FBF2FB11D5D968C91928D9F5F9F73928F90E008958FEF9FEF08958EEF98E00D
:200F6000892B49F080E090E0892B29F00E94FE0881110C9400000895FC01A48DA80FB92FA3
:200F8000B11DA35ABF4F2C91848D90E001968F739927848FA689B7892C93A089B1898C9120
:200FA00080648C93938D848D981306C00288F389E02D80818F7D80830895CF93DF93EC010B
:200FC000888D8823B9F0AA89BB89E889F9898C9185FD03C0808186FD0DC00FB607FCF7CFFD
:200FE0008C9185FFF2CF808185FFEDCFCE010E94BC07E9CFDF91CF910895EF92FF920F9341
:201000001F93CF93DF93EC0181E0888F9B8D8C8D981316C0E889F989808185FF11C0EE8963
:20102000FF896083E889F98980818064808381E090E0DF91CF911F910F91FF90EF900895CE
:20104000F62E0B8D10E00F5F1F4F0F731127E02E8C8D8E110CC00FB607FCFACFE889F98938
:20106000808185FFF5CFCE010E94BC07F1CFEB8DEC0FFD2FF11DE35AFF4FF0820B8FEA897C
:20108000FB8980818062D2CFCF92DF92EF92FF921F93CF93DF93EC016A017B01122FE88958
:2010A000F98982E08083C11481EED806E104F104A1F060E079E08DE390E0A70196010E9462
:2010C0006F0E21503109410951095695479537952795211580E1380798F0E889F989108212
:2010E00060E874E88EE190E0A70196010E946F0E2150310941095109569547953795279571
:20110000EC85FD853083EE85FF852083188EEC89FD891083EA89FB89808180618083EA890C
:20112000FB89808188608083EA89FB89808180688083EA89FB8980818F7D8083DF91CF9185
:201140001F91FF90EF90DF90CF9008951F920F920FB60F9211242F938F939F93EF93FF934F
:20116000E0911F05F09120058081E0912505F091260582FD1BC09081809128058F5F8F7353
:2011800020912905821741F0E0912805F0E0E15FFA4F958F80932805FF91EF919F918F91EB
:2011A0002F910F900FBE0F901F9018958081F4CF1F920F920FB60F9211242F933F934F93E1
:2011C0005F936F937F938F939F93AF93BF93EF93FF938FE095E00E94BC07FF91EF91BF9164
:2011E000AF919F918F917F916F915F914F913F912F910F900FBE0F901F9018958FE095E0A4
:201200000E94800721E0892B09F420E0822F0895EFE0F5E01382128288EE93E0A0E0B0E0DF
:2012200084839583A683B78387EF94E09183808385EC90E09587848784EC90E09787868718
:2012400080EC90E0918B808B81EC90E0938B828B82EC90E0958B848B86EC90E0978B868B61
:20126000118E128E138E148E0895AF92BF92CF92DF92EF92FF920F931F93CF93DF936C0144
:201280007B018B01040F151FEB015E01AE18BF08C017D10759F06991D601ED91FC910190C2
:2012A000F081E02DC6010995892B79F7C501DF91CF911F910F91FF90EF90DF90CF90BF9016
:2012C000AF900895FB0101900020E9F73197AF01461B570BDC01ED91FC910280F381E02D7F
:2012E00009946115710511F00C94620990E080E00895DC01ED91FC910190F081E02D099458
:2013000063E075E00C9462090F931F93CF93DF938C01D0E0C0E06115710519F00E94620923
:20132000EC01C8010E9480098C0F9D1FDF91CF911F910F9108958F929F92AF92BF92EF9253
:20134000FF920F931F93CF93DF93CDB7DEB7A1970FB6F894DEBF0FBECDBF7C01FA01CB01F8
:2013600019A2223008F42AE08E010F5D1F4F822E912CB12CA12CBF01A50194010E946F0EC0
:20138000F901CA016A300CF5605DD8016E938D01232B242B252B79F790E080E0109721F0E3
:2013A000BD01C7010E946209A1960FB6F894DEBF0FBECDBFDF91CF911F910F91FF90EF90EE
:2013C000BF90AF909F908F900895695CDECFCF92DF92EF92FF920F931F93CF93DF932115E0
:2013E000310581F4DC01ED91FC910190F081E02D642FDF91CF911F910F91FF90EF90DF901B
:20140000CF9009942A30310501F52AE077FF1DC06A017B01EC016DE20E9479098C014427AE
:201420005527BA014C195D096E097F092AE0CE010E949B09800F911FDF91CF911F910F912D
:20144000FF90EF90DF90CF900895DF91CF911F910F91FF90EF90DF90CF900C949B099A0138
:20146000AB01770F660B770B0C94E7094F925F926F927F928F929F92AF92BF92CF92DF921D
:20148000EF92FF920F931F93CF93DF9300D000D01F92CDB7DEB78B0129013A019091010194
:2014A0008917C9F09F3F09F4B5C00F900F900F900F900F90DF91CF911F910F91FF90EF903A
:2014C000DF90CF90BF90AF909F908F907F906F905F904F900895EBECF0E094919D8397FD69
:2014E000E4CF61E00E94ED068D81882321F09D81923009F061C14801B12CA12C60E072E118
:201500008AE790E0A50198010E94910E29833A834B835C8369017A0181E0C81AD108E1086A
:20152000F1089FEFC916D104E104F10409F00CF424C160E472E48FE090E0A50198010E945E
:20154000910E69017A0181E0C81AD108E108F1089D81923009F0BDC18FEFC816D104E1049C
:20156000F10409F00CF4E2C160E970ED83E090E0A50198010E94910E69017A0191E0C91AA8
:20158000D108E108F1088FEFC816D104E104F10409F00CF4CDC168E478EE81E090E0A501D5
:2015A00098010E94910E69017A0191E0C91AD108E108F1088FEFC816D104E104F10411F051
:2015C0000CF0ABC084E09091B100987F892B8093B1002FEF3FEFA901411451046104710465
:2015E00009F0DCC09D81913009F410C1923009F430C191115ACFC7BC2093BD053093BE05B0
:201600004093BF055093C00580916E00826080936E004BCF80930101EBECF0E094919D838E
:201620009F3F09F442CF913061F150F0923009F44EC09D8197FD39CF61E00E94ED0657CFE8
:2016400014BC15BC94B5926094BD95B5916095BD282F30E0F901EA56FF4FE491F0E0EE0F9F
:20166000FF1FE954FF4F459154915093BC054093BB05F901E158FF4FE491E093BA051D8208
:2016800030CF10928000109281009091810098609093810090918100916090938100282F3A
:2016A00030E0F901EA56FF4FE491F0E0EE0FFF1FE954FF4F459154915093B5054093B405C3
:2016C000F901E158FF4FE491E093B3050ACF1092B0001092B1009091B00092609093B000D5
:2016E0009091B10091609093B100282F30E0F901EA56FF4FE491F0E0EE0FFF1FE954FF4F79
:20170000459154915093AE054093AD05F901E158FF4FE491E093AC05E4CE64E274EF80E01E
:2017200090E0A50198010E94910E69017A0191E0C91AD108E108F1088FEFC816D104E104AF
:20174000F10409F008F4F6C062E17AE780E090E0A50198010E94910E69017A0191E0C91ABC
:20176000D108E108F1088FEFC816D104E104F10411F008F0B7C086E026CF81E09D819111B7
:2017800022CF95B5987F892B85BD2FEF3FEFA901411451046104710409F42DCFD801AA0FFC
:2017A000BB1FA30192010E94B00E28EE33E040E050E00E946F0E16CFB12CA12C60E072E1FE
:2017C0008AE790E0A50198010E94910E69017A0181E0C81AD108E108F108C114D10491E0AA
:2017E000E906F1042CF591E08D81813009F0F1CE80918100887F892B809381002FEF3FEFCF
:20180000A901411451046104710441F6D0928900C09288002093B6053093B7054093B80521
:201820005093B90580916F00826080936F003DCE68E478EE81E090E0A50198010E94910E15
:2018400069017A0181E0C81AD108E108F10893E0CBCFC092B3002093AF053093B0054093E1
:20186000B1055093B205809170008260809370001CCE68E478EE81E090E0A50194010E94E8
:20188000910E69017A0181E0C81AD108E108F10883E09FEFC916D104E104F10409F00CF44E
:2018A0006DCF62E17AE780E090E0A50194010E94910E69017A0191E0C91AD108E108F10808
:2018C0008FEFC816D104E104F10409F0E8F484E055CF8FEFC816D104E104F10409F04CF65A
:2018E00082E04CCFC980DA80EB80FC809AE0F594E794D794C7949A95D1F791E0C91AD10879
:20190000E108F10887E05FCEC980DA80EB80FC808AE0F594E794D794C7948A95D1F781E04B
:20192000C81AD108E108F10885E028CF82E04BCE83E049CE85E047CE813039F018F08230AB
:2019400051F0089510926E00089580916F008D7F80936F000895809170008D7F8093700041
:2019600081E08093B0008091B100887F84608093B1001092B3000895CF93C82F8091010174
:20198000C8130DC0EBECF0E084919FEF909301010E949C0C60E08C2FCF910C9429078FEF3D
:2019A000F7CF1F920F920FB60F9211242F933F934F935F936F937F938F939F93AF93BF9310
:2019C000EF93FF938091AF059091B005A091B105B091B205892B8A2B8B2BD1F19091AC05C6
:2019E000E091AD05F091AE058081892780838091AF059091B005A091B105B091B205181634
:201A000019061A061B069CF48091AF059091B005A091B105B091B2050197A109B10980934D
:201A2000AF059093B005A093B105B093B205FF91EF91BF91AF919F918F917F916F915F9147
:201A40004F913F912F910F900FBE0F901F901895809101010E94BC0CEACF08950E940E0626
:201A60000E942D0D0E949100CEEAD7E00E943D022097E1F30E94AE07F9CF08950E94450DCC
:201A80006894B1110C94FC0D08950E94E10D88F09F5798F0B92F9927B751B0F0E1F0660F26
:201AA000771F881F991F1AF0BA95C9F714C0B13091F00E94FB0DB1E008950C94FB0D672FCC
:201AC000782F8827B85F39F0B93FCCF3869577956795B395D9F73EF4909580957095619517
:201AE0007F4F8F4F9F4F0895E89409C097FB3EF490958095709561957F4F8F4F9F4F99231B
:201B0000A9F0F92F96E9BB279395F695879577956795B795F111F8CFFAF4BB0F11F460FF9B
:201B20001BC06F5F7F4F8F4F9F4F16C0882311F096E911C0772321F09EE8872F762F05C03F
:201B4000662371F096E8862F70E060E02AF09A95660F771F881FDAF7880F9695879597F99E
:201B6000089597F99F6780E870E060E008959FEF80EC089500240A941616170618060906CE
:201B8000089500240A9412161306140605060895092E0394000C11F4882352F0BB0F40F419
:201BA000BF2B11F460FF04C06F5F7F4F8F4F9F4F089557FD9058440F551F59F05F3F71F0C3
:201BC0004795880F97FB991F61F09F3F79F087950895121613061406551FF2CF4695F1DFBC
:201BE00008C0161617061806991FF1CF86957105610508940895E894BB2766277727CB01B9
:201C000097F908950E94150E0C94C80D0E94BA0D38F00E94C10D20F0952311F00C94B10D35
:201C20000C94B70D11240C94FC0D0E94D90D70F3959FC1F3950F50E0551F629FF001729F44
:201C4000BB27F00DB11D639FAA27F00DB11DAA1F649F6627B00DA11D661F829F2227B00DB9
:201C6000A11D621F739FB00DA11D621F839FA00D611D221F749F3327A00D611D231F849F8C
:201C8000600D211D822F762F6A2F11249F5750409AF0F1F088234AF0EE0FFF1FBB1F661F25
:201CA000771F881F91505040A9F79E3F510580F00C94B10D0C94FC0D5F3FE4F3983ED4F31A
:201CC000869577956795B795F795E7959F5FC1F7FE2B880F911D9695879597F90895A1E272
:201CE0001A2EAA1BBB1BFD010DC0AA1FBB1FEE1FFF1FA217B307E407F50720F0A21BB30B83
:201D0000E40BF50B661F771F881F991F1A9469F760957095809590959B01AC01BD01CF0141
:201D20000895052E97FB1EF400940E94A80E57FD07D00E946F0E07FC03D04EF40C94A80E8B
:201D400050954095309521953F4F4F4F5F4F089590958095709561957F4F8F4F9F4F08956B
:201D60000E94C10EA59F900DB49F900DA49F800D911D11240895EE0FFF1F0590F491E02D8F
:201D80000994A29FB001B39FC001A39F700D811D1124911DB29F700D811D1124911D089575
:201DA000F894FFCF01FF507265737320535220746F20636F6E74696E7565002074686520EE
:201DC000636F6E6E6563746F7220616E642045636869646E6120737572666163650020618F
:201DE0006E6420746865202B562077697468207468652066696E67657220004D6F76652060
:201E00004A6F79737469636B20746F20000900205468697320776F726B73002A2A2A205446
:201E20004553542050524F4752414D2045636869646E61576974652C20706C656173652033
:201E400053572053656C6563742053454E53206D6F6465202A2A2A00546865206C65642006
:201E6000477265656E20697320477265656E2C204F72616E6765206973204F72616E676544
:201E80002C20526564206973205265643F2C20656C7365206D61726B204661696C0054684D
:201EA00065206C65642052474220697320426C75653F2C20656C7365206D61726B20466103
:201EC000696C00546865206C65642052474220697320477265656E3F2C20656C7365206DEE
:201EE00061726B206661696C00546865206C65642052474220697320526565643F2C2065EB
:201F00006C7365206D61726B206661696C00506C6561736520707265737320534C005468D4
:201F20006520535220616E20534C2061726520776F726B696E670054656D70657261747599
:201F4000726520002043002054686520496E646963617465642074656D70657261747572D8
:201F6000652069732054656D702E20616D6269656E74206170726F782E3F2C2020656C73B5
:201F800065206D61726B204661696C00737065616B696E6720746F20746865206D696372F4
:201FA0006F70686F6E652000205365742074686520766F6C756D6520706F74656E74696F81
:201FC0006D6574657220746F2074686520726967746820706F73736974696F6E2000486171
:201FE000766520796F75206865617264206120626565703F2C20656C7365206D61726B2009
:202000004661696C2000506C65617365207072657373204A6F79737469636B20627574742E
:202020006F6E004C45465400524947485400444F574E0055500052616973652074686520C8
:202040005043422072696774682073696465200052616973652074686520504342206C654D
:20206000667420736964652000526169736520746865205043422066726F6E7420736964AE
:20208000650052616973652074686520504342206261636B20736964652000436F766572FC
:2020A00020746865204C44522000546F75636820494E3400546F75636820494F3100546F00
:2020C00075636820494F3200546F75636820494F33002A2A2A20706C6561736520535720E6
:2020E00053656C656374204D4B4D4B206D6F646521202A2A2A00546F7563682044330054BE
:202100006F7563682020443200546F75636820413500546F75636820413400546F75636826
:2021200020413300546F75636820413200546F75636820413100546F75636820413020002C
:202140002A2A2A454E44204F46205448452054455354202A2A2A2C20506C6561736520535D
:20216000572053656C6563742053454E53206D6F6465002A2A2A20666F7220726570656158
:20218000742074657374207072657373205265736574202A2A2A0000000000FD073509801B
:2021A000079A078C07DD070D0A00FFFFFFFFFFFFFFFFFFFFFFFFFFFFFFFFFFFFFFFFFFFFFF
:2021C000FFFFFFFFFFFFFFFFFFFFFFFFFFFFFFFFFFFFFFFFFFFFFFFFFFFFFFFFFFFFFFFF1F
:2021E000FFFFFFFFFFFFFFFFFFFFFFFFFFFFFFFFFFFFFFFFFFFFFFFFFFFFFFFFFFFFFFFFFF
:2022000000D0CDB7DEB75A834983FC01A081B1811097A9F08C016F706069ED91FC911197B4
:202220000190F081E02DCD01099522E030E0AE014F5F5F4F62E070E0C8010E94D10F0F908A
:202240000F90DF91CF911F910F910895CF92DF92EF92FF920F931F93CF93DF93FC01A081F8
:20226000B181109709F450C068018901F42EE62EEC01ED91FC9111970190F081E02D60EF51
:20228000CD01099588819981DC01ED91FC910190F081E02D69E7099588819981DC01ED914C
:2022A000FC910190F081E02D6E2D099588819981DC01ED91FC910190F081E02D6F2D0995F5
:2022C00076010C0D1D1DE016F10661F030E020E0A70161E070E0CE010E94D10FBFEFEB1AA9
:2022E000FB0AF1CF88819981DC01ED91FC910190F081E02D67EFDF91CF911F910F91FF90FA
:20230000EF90DF90CF900994DF91CF911F910F91FF90EF90DF90CF9008950F931F93CF9384
:20232000DF93FC01A081B181109721F1042F162FEC01ED91FC9111970190F081E02D69EFA3
:20234000CD01099588819981DC01ED91FC910190F081E02D612F099588819981DC01ED914B
:20236000FC910190F081E02D602FDF91CF911F910F910994DF91CF911F910F910895CF9257
:20238000DF92EF92FF920F931F93CF93DF93FC01A081B1811097D9F169017A01C62F8C016A
:2023A000ED91FC9111970190F081E02D60EFCD010995D8018D919C91DC01ED91FC91019003
:2023C000F081E02D6C2F0995E601EC0CFD1CCE15DF0551F030E020E0AE0161E070E0C8012D
:2023E0000E94D10F2196F3CFF80180819181DC01ED91FC910190F081E02D67EFDF91CF91B9
:202400001F910F91FF90EF90DF90CF900994DF91CF911F910F91FF90EF90DF90CF9008955A
:202420009B01FB0101900020E9F73197AF01461B570B61E70C94BF11FC01728361835483D3
:20244000438315821682108617821186138612861586148617861686118A108A138A128AB4
:20246000158A148A178A168A118E108E138E128E158E148E178E168E11A210A213A212A204
:2024800015A214A217A216A211A610A613A612A615A614A617A616A611AA10AA13AA12AAA4
:2024A00015AA14AA17AA16AA11AE10AE13AE12AE81E0672B09F080E080830895FC01603D9A
:2024C000D9F028F4603971F0603C89F00895643FC1F0653FD9F0603EE9F455A344A3358794
:2024E0002487089557A346A337872687089551A740A7318B208B089553A742A7338B228B78
:20250000089555A744A7358B248B089557A746A7378B268B0895693729F4FC0157AB46AB83
:20252000318F208F0895FC01693F19F06F3F31F0089551AF40AF338F228F089553AF42AF83
:2025400033A322A30895613729F4FC0153AB42AB378F268F0895FC0155AB44AB31A320A30B
:202560000895FF920F931F93CF93DF93EC01F62E8A018B819C814817590768F489819A8100
:20258000080F191FF801F08280E0DF91CF911F910F91FF900895E8A9F9A9309711F481E075
:2025A000F4CF81E088838C8D9D8D09958B819C8108171907A0F7E2CFFA0130E020E0C90186
:2025C000880F991F8617970778F48081DA018D93AD0111979181979599279795982B9C9397
:2025E0002F5F3F4F3296EBCFC9010895CF93DF93EC0149815A81FA016081613789F16937E2
:2026000009F04DC0EEA9FFA9309709F458C06A857B856330710558F430E020E050E040E0F5
:2026200070E060E0888D998DDF91CF9109944D5F5F4F635071090E94DC12AC014D5F5F4F44
:2026400060E0CE010E94B112E981FA819F012D5F3F4F428150E0618170E0EEA9FFA9E2CF52
:202660008AA99BA9892B59F14F5F5F4F6A857B8561507109CE010E94DC12AC014F5F5F4F07
:2026800060E0CE010E94B11269817A816F5F7F4FEAA9FBA98E8D9F8DDF91CF910994ECA9C5
:2026A000FDA9309761F09A012F5F3F4F4A855B854150510988A199A1DF91CF910994DF91CB
:2026C000CF910895DC0118961C921E92179715961C92159716961C92169790E080E01396E1
:2026E0002D913C9114978217930748F41196ED91FC911297E80FF91F10820196F0CF199634
:202700001C9219971B961C921E921A97DA96ED91FC91DB97309721F092968D919C910994C6
:202720000895CF93DF93EC0189858823A9F0673F31F41986CE01DF91CF910C94F6124A8569
:202740005B85CE010E94B1128A859B8501969B878A87DF91CF9108954F81588541155105A6
:2027600009F47FC067FD7DC04150510958874F83CE010E94B1128F819885892B51F78D8175
:20278000882339F3803D09F45FC038F4803901F1803C09F44CC01D82DCCF843F69F1853FC2
:2027A000C1F1803EC1F7ECA1FDA13097A1F3A981BA814C9120E8429FC001112411964C91C6
:2027C000480F592F511D6E818C859D850995E3CFEEA1FFA13097F9F2A981BA814C9120E80F
:2027E000429FC001112411964C91480F592F511D6E818E859F85EACFECA5FDA5309759F20D
:20280000A981BA814C9150E011966C918C899D89DDCFEEA5FFA5309709F4BDCFA981BA81CF
:202820004C9150E011966C918E899F89CFCFE8A5F9A5309709F4AFCFA981BA814C9150E02B
:202840006E8188899989C2CFEAA5FBA5309709F4A2CFA981BA814C9150E06E818A899B89C9
:20286000B5CF603F20F4862F8F708E83607F603F29F188F4603CF9F048F4603909F069CFBD
:2028800082E090E098878F836D8363CF603D99F0603EB1F35ECF693FB1F028F48CE0860F18
:2028A000823070F356CF6F3F09F053CFCE01DF91CF910C94621381E090E0E4CF81E089876C
:2028C0001B861A8646CFE8ADF9AD309709F441CF8A8D9B8DDF91CF9109941F920F920FB6D0
:2028E0000F9211242F933F934F935F936F937F938F939F93AF93BF93EF93FF93E091E30432
:20290000F091E404309749F0A685B7858585968D91FF14C09C918923A1F4FF91EF91BF9188
:20292000AF919F918F917F916F915F914F913F912F910F900FBE0F901F9018959C91892357
:2029400061F7A389B4899C918589809589238C93868997890197F1F7608D718DA685B7859A
:20296000558538E020E0CB010197F1F7822F90E095958795282F4C91452309F02068315014
:2029800091F7868D81FD20958091A20490E001968F7399273091A104381799F0A091A204D4
:2029A000B0E0AD55BB4F2C938093A204828D938D0197F1F7A389B4898C919589892B8C93DD
:2029C000ACCF868D8160868FF1CF1F920F920FB60F9211242F933F938F939F93AF93BF934A
:2029E0008091E6049091E704A091E804B091E9043091E50423E0230F2D3758F50196A11DA0
:202A0000B11D2093E5048093E6049093E704A093E804B093E9048091EA049091EB04A091B2
:202A2000EC04B091ED040196A11DB11D8093EA049093EB04A093EC04B093ED04BF91AF9157
:202A40009F918F913F912F910F900FBE0F901F90189526E8230F0296A11DB11DD2CF2FB744
:202A6000F8946091E6047091E7048091E8049091E9042FBF08953FB7F8948091EA049091CB
:202A8000EB04A091EC04B091ED0426B5A89B05C02F3F19F00196A11DB11D3FBFBA2FA92FB8
:202AA000982F8827BC01CD01620F711D811D911D42E0660F771F881F991F4A95D1F70895FA
:202AC0008F929F92AF92BF92CF92DF92EF92FF926B017C010E943B154B015C01C114D10400
:202AE000E104F104E9F00E9420190E943B15681979098A099B09683E73408105910570F344
:202B000021E0C21AD108E108F10888EE880E83E0981EA11CB11CC114D104E104F10429F7CA
:202B2000FF90EF90DF90CF90BF90AF909F908F9008958230910538F0880F991F880F991F32
:202B400005970197F1F70895789484B5826084BD84B5816084BD85B5826085BD85B5816080
:202B600085BDEEE6F0E0808181608083E1E8F0E01082808182608083808181608083E0E8CC
:202B8000F0E0808181608083E1EBF0E0808184608083E0EBF0E0808181608083EAE7F0E0DB
:202BA0008081846080838081826080838081816080838081806880831092C10008958830BE
:202BC00020F08D3008F48DE08E502091090190E4299F900111248770822B80937C008091E0
:202BE0007A00806480937A0080917A0086FDFCCF809178009091790008951F93CF93DF93CB
:202C0000182FEB0161E00E948316209739F460E0812FDF91CF911F910C94BF16CF3FD10558
:202C200011F461E0F5CFE12FF0E0E859FF4FE491E43031F140F4E230B1F0E330E1F0C038AD
:202C4000D1057CF7E4CFE83029F1E93059F1E530B1F780918000806280938000D0938B0032
:202C6000C0938A0004C084B5806884BDC7BDDF91CF911F91089584B5806284BDC8BDF7CF09
:202C800080918000806880938000D0938900C0938800EDCF8091B00080688093B000C093E6
:202CA000B300E5CF8091B00080628093B000C093B400DDCF843081F028F4823099F0833065
:202CC000A9F008958830A9F08930C9F08530B1F4809180008F7D03C0809180008F77809397
:202CE0008000089584B58F7784BD089584B58F7DFBCF8091B0008F778093B0000895809153
:202D0000B0008F7DF9CFCF93DF9390E0FC01E158FF4F24918A569F4FFC0184918823C9F06E
:202D200090E0880F991FFC01E954FF4FA591B491FC01E355FF4FC591D49161110DC09FB7FE
:202D4000F8948C91209582238C938881282328839FBFDF91CF910895623051F49FB7F894CE
:202D60003C91822F809583238C93E8812E2BEFCF8FB7F894EC912E2B2C938FBFEACF1F935B
:202D8000CF93DF93282F30E0F901E859FF4F8491F901E158FF4FD491F901EA56FF4FC49197
:202DA000CC23A9F0162F81110E945A16EC2FF0E0EE0FFF1FE355FF4FA591B4918FB7F894C9
:202DC000EC91111108C0D095DE23DC938FBFDF91CF911F910895DE2BF8CFFC01918D228DB2
:202DE000892F90E0805C9F4F821B91098F7399270895FC01918D828D981731F0828DE80F4B
:202E0000F11D858D90E008958FEF9FEF0895FC01918D828D981761F0A28DAE0FBF2FB11D0A
:202E20005D968C91928D9F5F9F73928F90E008958FEF9FEF08958BE698E1892B49F080E045
:202E400090E0892B29F00E946B1881110C9400000895FC01A48DA80FB92FB11DA35ABF4F9B
:202E60002C91848D90E001968F739927848FA689B7892C93A089B1898C9180648C93938DD7
:202E8000848D981306C00288F389E02D80818F7D80830895CF93DF93EC01888D8823B9F0C6
:202EA000AA89BB89E889F9898C9185FD03C0808186FD0DC00FB607FCF7CF8C9185FFF2CF05
:202EC000808185FFEDCFCE010E942917E9CFDF91CF910895EF92FF920F931F93CF93DF93A1
:202EE000EC0181E0888F9B8D8C8D981316C0E889F989808185FF11C0EE89FF896083E8890F
:202F0000F98980818064808381E090E0DF91CF911F910F91FF90EF900895F62E0B8D10E0FF
:202F20000F5F1F4F0F731127E02E8C8D8E110CC00FB607FCFACFE889F989808185FFF5CF9C
:202F4000CE010E942917F1CFEB8DEC0FFD2FF11DE35AFF4FF0820B8FEA89FB8980818062E2
:202F6000D2CFCF92DF92EF92FF921F93CF93DF93EC016A017B01122FE889F98982E08083D9
:202F8000C11481EED806E104F104A1F060E079E08DE390E0A70196010E943D192150310949
:202FA000410951095695479537952795211580E1380798F0E889F989108260E874E88EE128
:202FC00090E0A70196010E943D1921503109410951095695479537952795EC85FD85308306
:202FE000EE85FF852083188EEC89FD891083EA89FB89808180618083EA89FB898081886047
:203000008083EA89FB89808180688083EA89FB8980818F7D8083DF91CF911F91FF90EF9035
:20302000DF90CF9008951F920F920FB60F9211242F938F939F93EF93FF93E091FE04F0911A
:20304000FF048081E0910405F091050582FD1BC09081809107058F5F8F7320910805821798
:2030600041F0E0910705F0E0E251FB4F958F80930705FF91EF919F918F912F910F900FBE86
:203080000F901F9018958081F4CF1F920F920FB60F9211242F933F934F935F936F937F9308
:2030A0008F939F93AF93BF93EF93FF938EEE94E00E942917FF91EF91BF91AF919F918F9152
:2030C0007F916F915F914F913F912F910F900FBE0F901F9018958EEE94E00E94ED1621E083
:2030E000892B09F420E0822F0895EEEEF4E01382128288EE93E0A0E0B0E084839583A683B7
:20310000B78380E192E09183808385EC90E09587848784EC90E09787868780EC90E0918B80
:20312000808B81EC90E0938B828B82EC90E0958B848B86EC90E0978B868B118E128E138E7A
:20314000148E0895AF92BF92CF92DF92EF92FF920F931F93CF93DF936C017B018B01040F0A
:20316000151FEB015E01AE18BF08C017D10759F06991D601ED91FC910190F081E02DC60199
:203180000995892B79F7C501DF91CF911F910F91FF90EF90DF90CF90BF90AF9008954F929F
:2031A0005F926F927F92AF92BF92CF92DF92EF92FF920F931F93CF93DF93CDB7DEB729012B
:2031C0003A019B01AC01241935094609570989899A89AB89BC89BC01CD016A197B098C096C
:2031E0009D090E942119A801970124193509460957090E945F19CA01B9016A0D7B1D8C1D8B
:203200009D1DDF91CF911F910F91FF90EF90DF90CF90BF90AF907F906F905F904F900895F1
:2032200008950E94A4150E9410190E941B04CBE1D7E10E9474072097E1F30E941B17F9CF62
:203240000895DB018F939F930E948419BF91AF91A29F800D911DA39F900DB29F900D112454
:203260000895991B79E004C0991F961708F0961B881F7A95C9F780950895A1E21A2EAA1B1A
:20328000BB1BFD010DC0AA1FBB1FEE1FFF1FA217B307E407F50720F0A21BB30BE40BF50BEB
:2032A000661F771F881F991F1A9469F760957095809590959B01AC01BD01CF010895052EAB
:2032C00097FB1EF400940E94761957FD07D00E943D1907FC03D04EF40C9476195095409561
:2032E000309521953F4F4F4F5F4F089590958095709561957F4F8F4F9F4F0895EE0FFF1F55
:203300000590F491E02D09940E948F19A59F900DB49F900DA49F800D911D11240895A29F3D
:20332000B001B39FC001A39F700D811D1124911DB29F700D811D1124911D08950F931F9349
:20334000CF93DF938230910510F482E090E0E0918D05F0918E0530E020E0B0E0A0E030977D
:2033600099F42115310509F44AC0281B390B24303105D8F58A819B816115710589F1FB01E6
:2033800093838283FE0111C0408151810281138148175907E0F04817590799F4109761F0C5
:2033A00012960C93129713961C933296CF01DF91CF911F910F91089500938D0510938E0515
:2033C000F4CF2115310551F04217530738F0A901DB019A01BD01DF01F801C1CFEF01F9CFA2
:2033E00090938E0580938D05CDCFFE01E20FF31F819391932250310939832883D7CF209132
:203400008B0530918C05232B41F4209102013091030130938C0520938B05209100013091C4
:2034200001012115310541F42DB73EB74091040150910501241B350BE0918B05F0918C05C1
:20344000E217F307A0F42E1B3F0B2817390778F0AC014E5F5F4F2417350748F04E0F5F1FD9
:2034600050938C0540938B05819391939FCFF0E0E0E09CCFCF93DF930097E9F0FC013297CA
:2034800013821282A0918D05B0918E05ED0130E020E01097A1F420813181820F931F2091EB
:2034A0008B0530918C052817390709F061C0F0938C05E0938B05DF91CF910895EA01CE173D
:2034C000DF07E8F54A815B819E0141155105B1F7E901FB83EA8349915991C40FD51FEC172C
:2034E000FD0761F4808191810296840F951FE90199838883828193819B838A83F0E0E0E09E
:2035000012968D919C9113970097B9F52D913C911197CD010296820F931F20918B053091EB
:203520008C052817390739F6309751F510928E0510928D05B0938C05A0938B05BCCFD3835E
:20354000C28340815181840F951FC817D90761F44E5F5F4F88819981480F591F5183408354
:203560008A819B81938382832115310509F0B0CFF0938E05E0938D059ECFFD01DC01C0CF33
:2035800013821282D7CFFB01DC014150504048F001900D920020C9F701C01D924150504089
:2035A000E0F70895FC0181E090E00190061609F4CF010020D1F701970895FB0151915523DC
:2035C000A9F0BF01DC014D9145174111E1F759F4CD010190002049F04D9140154111C9F30B
:2035E000FB014111EFCF81E090E001970895F894FFCF00008F058000FF1300014D617820F2
:20360000736572766F7320617474616368656400556E6B6E6F776E2070696E206D6F64658E
:2036200000433A5C50726F6772616D2046696C65732028783836295C41726475696E6F5CE5
:203640006C69627261726965735C4669726D6174615C6578616D706C65735C5374616E647C
:203660006172644669726D6174615C5374616E646172644669726D6174612E696E6F004941
:2036800032433A20546F6F206D616E79206279746573207265636569766564004932433AAE
:2036A00020546F6F206665772062797465732072656365697665640031302D62697420615A
:2036C000646472657373696E67206E6F7420737570706F7274656400746F6F206D616E7989
:2036E00020717565726965730000000000310A600A070A0E0A210A300A2E63707000000008
:2037000000006A17A218ED160717F9164A17FFFFFFFFFFFFFFFFFFFFFFFFFFFFFFFFFFFFEF
:20372000FFFFFFFFFFFFFFFFFFFFFFFFFFFFFFFFFFFFFFFFFFFFFFFFFFFFFFFFFFFFFFFFA9
:20374000FFFFFFFFFFFFFFFFFFFFFFFFFFFFFFFFFFFFFFFFFFFFFFFFFFFFFFFFFFFFFFFF89
:20376000FFFFFFFFFFFFFFFFFFFFFFFFFFFFFFFFFFFFFFFFFFFFFFFFFFFFFFFFFFFFFFFF69
:20378000FFFFFFFFFFFFFFFFFFFFFFFFFFFFFFFFFFFFFFFFFFFFFFFFFFFFFFFFFFFFFFFF49
:207E0000112484B714BE81FFF0D085E08093810082E08093C00088E18093C10086E08093FC
:207E2000C20080E18093C4008EE0C9D0259A86E020E33CEF91E0309385002093840096BBAD
:207E4000B09BFECF1D9AA8958150A9F7CC24DD2488248394B5E0AB2EA1E19A2EF3E0BF2E79
:207E6000A2D0813461F49FD0082FAFD0023811F0013811F484E001C083E08DD089C0823404
:207E800011F484E103C0853419F485E0A6D080C0853579F488D0E82EFF2485D0082F10E0A0
:207EA000102F00270E291F29000F111F8ED068016FC0863521F484E090D080E0DECF84364D
:207EC00009F040C070D06FD0082F6DD080E0C81680E7D80618F4F601B7BEE895C0E0D1E0ED
:207EE00062D089930C17E1F7F0E0CF16F0E7DF0618F0F601B7BEE89568D007B600FCFDCF1A
:207F0000A601A0E0B1E02C9130E011968C91119790E0982F8827822B932B1296FA010C016F
:207F200087BEE89511244E5F5F4FF1E0A038BF0751F7F601A7BEE89507B600FCFDCF97BE85
:207F4000E89526C08437B1F42ED02DD0F82E2BD03CD0F601EF2C8F010F5F1F4F84911BD0B8
:207F6000EA94F801C1F70894C11CD11CFA94CF0CD11C0EC0853739F428D08EE10CD085E9AE
:207F80000AD08FE07ACF813511F488E018D01DD080E101D065CF982F8091C00085FFFCCF0A
:207FA0009093C60008958091C00087FFFCCF8091C00084FD01C0A8958091C6000895E0E68F
:207FC000F0E098E1908380830895EDDF803219F088E0F5DFFFCF84E1DECF1F93182FE3DF47
:207FE0001150E9F7F2DF1F91089580E0E8DFEE27FF270994FFFFFFFFFFFFFFFFFFFF040425
:00000001FF
