:100000000C9463000C948B000C948B000C948B006C
:100010000C948B000C948B000C948B000C94DD04DE
:100020000C948B000C948B000C948B000C948B0024
:100030000C948B000C948B000C948B000C948B0014
:100040000C9491050C948B000C945F050C9439056D
:100050000C948B000C948B000C948B000C948B00F4
:100060000C948B000C948B000000000024002700EF
:100070002A000000000023002600290000000008DC
:10008000000201000003040700000000000000005F
:10009000010204081020408001020408102001021F
:1000A0000408102000000000250028002B00040494
:1000B0000404040404040202020202020303030310
:1000C00003030200EB0A11241FBECFEFD8E0DEBF0E
:1000D000CDBF15E0A0E0B1E0E8E5F9E102C0059090
:1000E0000D92A830B107D9F725E0A8E0B5E001C02E
:1000F0001D92AF3BB207E1F710E0C3E6D0E004C0C9
:100100002197FE010E94950CC236D107C9F70E94C3
:10011000DB050C94AA0C0C940000AF92BF92CF9216
:10012000DF92EF92FF920F931F93CF93DF936C01B7
:100130007B018B01040F151FEB015E01AE18BF0898
:10014000C017D10759F06991D601ED91FC9101904A
:10015000F081E02DC6010995892B79F7C501DF9162
:10016000CF911F910F91FF90EF90DF90CF90BF90B4
:10017000AF900895FC01538D448D252F30E0842FDE
:1001800090E0821B930B541710F0CF9608950197BF
:100190000895FC01918D828D981761F0A28DAE0FAC
:1001A000BF2FB11D5D968C91928D9F5F9F73928F33
:1001B00090E008958FEF9FEF0895FC01918D828D5F
:1001C000981731F0828DE80FF11D858D90E008952C
:1001D0008FEF9FEF0895FC01918D228D892F90E084
:1001E000805C9F4F821B91098F739927089582E24B
:1001F00095E00E94EB0021E0892B09F420E0822F9A
:10020000089580E090E0892B29F00E94F700811189
:100210000C9400000895FC01A48DA80FB92FB11D06
:10022000A35ABF4F2C91848D90E001968F7399272C
:10023000848FA689B7892C93A089B1898C9183700A
:1002400080648C93938D848D981306C00288F38903
:10025000E02D80818F7D80830895EF92FF920F9330
:100260001F93CF93DF93EC0181E0888F9B8D8C8D62
:1002700098131AC0E889F989808185FF15C09FB756
:10028000F894EE89FF896083E889F9898081837019
:10029000806480839FBF81E090E0DF91CF911F91C8
:1002A0000F91FF90EF900895F62E0B8D10E00F5FE9
:1002B0001F4F0F731127E02E8C8D8E110CC00FB6BF
:1002C00007FCFACFE889F989808185FFF5CFCE0157
:1002D0000E940B01F1CFEB8DEC0FFD2FF11DE35AC6
:1002E000FF4FF0829FB7F8940B8FEA89FB898081DA
:1002F0008062CFCFCF93DF93EC01888D8823B9F054
:10030000AA89BB89E889F9898C9185FD03C0808120
:1003100086FD0DC00FB607FCF7CF8C9185FFF2CF9D
:10032000808185FFEDCFCE010E940B01E9CFDF91E7
:10033000CF910895833081F028F4813099F0823094
:10034000A9F008958730A9F08830C9F08430B1F45D
:10035000809180008F7D03C0809180008F77809393
:100360008000089584B58F7784BD089584B58F7D0E
:10037000FBCF8091B0008F778093B000089580917B
:10038000B0008F7DF9CFCF93DF93282F30E0F901B4
:10039000E458FF4F8491F901E057FF4FD491F901E0
:1003A000E255FF4FC491CC23A1F081110E949A0124
:1003B000EC2FF0E0EE0FFF1FEE58FF4FA591B49128
:1003C000EC91ED2381E090E009F480E0DF91CF91A2
:1003D000089580E090E0FACF1F93CF93DF93282F0A
:1003E00030E0F901E458FF4F8491F901E057FF4FE5
:1003F000D491F901E255FF4FC491CC23A9F0162FF7
:1004000081110E949A01EC2FF0E0EE0FFF1FEC55D6
:10041000FF4FA591B4918FB7F894EC91111108C0DA
:10042000D095DE23DC938FBFDF91CF911F9108958C
:10043000DE2BF8CF9091000189130BC0E2ECF0E0C5
:10044000E4919FEF90930001E13049F028F0E23011
:1004500061F060E00C94EC0110926E00FACF909184
:100460006F009D7F90936F00F4CF909170009D7FFF
:100470009093700091E09093B0009091B100987FBC
:1004800094609093B1001092B300E3CFCF93DF93C9
:1004900090E0FC01E057FF4F249182559F4FFC01F3
:1004A00084918823D1F090E0880F991FFC01E859CE
:1004B000FF4FA591B491FC01EC55FF4FC591D4912C
:1004C00061110EC09FB7F8948C91E22FE0958E23B6
:1004D0008C932881E223E8839FBFDF91CF91089519
:1004E0008FB7F894EC91E22BEC938FBFF6CF4F923D
:1004F0005F926F927F928F929F92AF92BF92CF92B4
:10050000DF92EF92FF920F931F93CF938C014A01DA
:100510005B01809100018A3099F08F3F09F459C046
:10052000CF911F910F91FF90EF90DF90CF90BF90F0
:10053000AF909F908F907F906F905F904F900895B5
:10054000E2ECF0E0C491C7FDEBCF61E08AE00E94ED
:100550004602CC2319F0C23009F0F1C0712C612C95
:1005600060E472E48FE090E0A30198010E946B0CBC
:1005700069017A0181E0C81AD108E108F108C230A6
:1005800009F096C08FEFC816D104E104F10409F018
:100590000CF4ACC060E970ED83E090E0A301980139
:1005A0000E946B0C69017A0181E0C81AD108E10848
:1005B000F1088FEFC816D104E104F10411F008F03E
:1005C000F9C083E09091B100987F892B8093B100AE
:1005D00094C08AE080930001E2ECF0E0C491CF3F48
:1005E00009F49ECFC13021F150F0C23009F43EC071
:1005F000C7FD96CF61E08AE00E944602ACCF14BCF2
:1006000015BC84B5826084BD85B5816085BDE8EB8D
:10061000F0E0E491F0E0EE0FFF1FEC55FF4F859105
:100620009491EAE9F0E0E491E0931505C0E08DCF04
:1006300010928000109281008091810088608093E8
:10064000810080918100816080938100E8EBF0E07F
:10065000E491F0E0EE0FFF1FEC55FF4F8591949170
:10066000EAE9F0E0E491E09314056FCF1092B00056
:100670001092B1008091B00082608093B0008091B0
:10068000B10081608093B100E8EBF0E0E491F0E02C
:10069000EE0FFF1FEC55FF4F85919491909313053A
:1006A00080931205EAE9F0E0E491E09311054DCF63
:1006B0008FEFC816D104E104F104A9F0A0F068E4BA
:1006C00078EE81E090E0A30198010E946B0C690133
:1006D0007A0181E0C81AD108E108F10893E0CC233F
:1006E00039F084E06FCF92E0CC2311F082E06ACF42
:1006F00085B5887F892B85BDC0E0D801AA0FBB1FB7
:10070000A50194010E948A0C28EE33E040E050E0FD
:100710000E94490CC13061F1C230E1F1C11100CF3A
:10072000C7BC20931E0530931F05409320055093AE
:10073000210580916E00826080936E00F1CE980159
:1007400050E040E060E072E18AE790E00E946B0CCC
:1007500069017A0181E0C81AD108E108F108C130C5
:1007600061F680918100887F816080938100C5CF90
:10077000D0928900C092880020931A0530931B05FF
:1007800040931C0550931D0580916F0082608093FB
:100790006F00C6CEC092B3002093160530931705A4
:1007A00040931805509319058091700082608093E2
:1007B0007000B6CE68E478EE81E090E0A301980185
:1007C0000E946B0C69017A0181E0C81AD108E10826
:1007D000F10887CFE82FF0E0E458FF4FE491E330D1
:1007E00011F138F4E130A9F0E230C1F060E00C948E
:1007F000EC01E73011F1E83041F1E430B9F78091D4
:10080000800080628093800070938B0060938A00E8
:10081000089584B5806884BD67BD089584B58062FD
:1008200084BD68BD089580918000806880938000B9
:10083000709389006093880008958091B00080686B
:100840008093B0006093B30008958091B0008062FF
:100850008093B0006093B40008958E5080648093BC
:100860007C0080917A00806480937A0080917A0085
:1008700086FDFCCF809178009091790008953FB774
:10088000F89480910D0590910E05A0910F05B091FF
:10089000100526B5A89B05C02F3F19F00196A11D94
:1008A000B11D3FBFBA2FA92F982F8827BC01CD01BA
:1008B000620F711D811D911D42E0660F771F881F19
:1008C000991F4A95D1F708958F929F92AF92BF9248
:1008D000CF92DF92EF92FF924B015C010E943F04A6
:1008E0006B017C010E943F046C197D098E099F09F0
:1008F000683E734081059105A8F321E0821A9108B2
:10090000A108B10888EEC80E83E0D81EE11CF11CD6
:1009100081149104A104B10429F7FF90EF90DF90B6
:10092000CF90BF90AF909F908F900895FC01019061
:100930000020E9F73197AF01481B590BBC0182E257
:1009400095E00C948D0083E191E00C949604CF9394
:10095000DF930E949604EC0183E191E00E949604EB
:100960008C0F9D1FDF91CF91089586E191E00E9449
:10097000A7040E94A3046AEF70E080E090E00E9468
:10098000640482E00E94C301892BD9F308950C947A
:1009900096048BE291E00E94C7048DE291E00C94F2
:1009A000A70489E391E00C94C7048BE491E00C94D4
:1009B000C70488E691E00C94C7041F920F920FB60B
:1009C0000F9211242F933F934F935F936F937F93D5
:1009D0008F939F93AF93BF93EF93FF9380911605EF
:1009E00090911705A0911805B0911905892B8A2BB4
:1009F0008B2BD1F190911105E0911205F091130527
:100A00008081892780838091160590911705A09198
:100A10001805B0911905181619061A061B069CF43C
:100A20008091160590911705A0911805B0911905B0
:100A30000197A109B1098093160590931705A0931A
:100A40001805B0931905FF91EF91BF91AF919F9158
:100A50008F917F916F915F914F913F912F910F9067
:100A60000FBE0F901F901895809100010E941A02EE
:100A7000EACF1F920F920FB60F9211242F933F933C
:100A80004F935F936F937F938F939F93AF93BF9396
:100A9000EF93FF9382E295E00E940B01FF91EF91AB
:100AA000BF91AF919F918F917F916F915F914F9186
:100AB0003F912F910F900FBE0F901F9018951F928E
:100AC0000F920FB60F9211242F938F939F93EF9352
:100AD000FF93E0913205F09133058081E091380574
:100AE000F091390582FD1BC0908180913B058F5F9D
:100AF0008F7320913C05821741F0E0913B05F0E0B7
:100B0000EE5DFA4F958F80933B05FF91EF919F919A
:100B10008F912F910F900FBE0F901F90189580818D
:100B2000F4CF1F920F920FB60F9211242F933F9381
:100B30008F939F93AF93BF938091090590910A057E
:100B4000A0910B05B0910C053091080523E0230F0F
:100B50002D3758F50196A11DB11D209308058093EE
:100B6000090590930A05A0930B05B0930C0580919D
:100B70000D0590910E05A0910F05B09110050196FD
:100B8000A11DB11D80930D0590930E05A0930F0537
:100B9000B0931005BF91AF919F918F913F912F918D
:100BA0000F900FBE0F901F90189526E8230F029606
:100BB000A11DB11DD2CFCF93DF93CDB7DEB7A197E3
:100BC0000FB6F894DEBF0FBECDBF789484B58260B7
:100BD00084BD84B5816084BD85B5826085BD85B5E1
:100BE000816085BD80916E00816080936E0010925F
:100BF00081008091810082608093810080918100DA
:100C0000816080938100809180008160809380006A
:100C10008091B10084608093B1008091B0008160C8
:100C20008093B00080917A00846080937A008091F4
:100C30007A00826080937A0080917A00816080934C
:100C40007A0080917A00806880937A001092C100C7
:100C500061E08DE00E94460261E08CE00E94460265
:100C600061E08BE00E94460261E089E00E9446025A
:100C700061E085E00E94460261E086E00E94460253
:100C800061E08AE00E94460260E087E00E9446023E
:100C900060E087E00E94460260E088E00E94460231
:100CA00060E088E00E94460260E08EE00E9446021A
:100CB00060E08FE00E94460260E080E10E94460210
:100CC00060E081E10E94460260E082E10E9446020B
:100CD00060E083E10E94460260E084E10E944602F7
:100CE00060E085E10E94460260E082E00E944602E8
:100CF00060E083E00E944602E0913205F091330506
:100D000082E08083E0912E05F0912F051082E09122
:100D10003005F09131058FEC808310923A05E09117
:100D20003605F091370586E08083E0913405F09137
:100D30003505808180618083E0913405F09135052F
:100D4000808188608083E0913405F0913505808151
:100D500080688083E0913405F091350580818F7D36
:100D6000808361E08BE00E94EC0161E08CE00E94F6
:100D7000EC0161E08DE00E94EC018BE891E00E94C3
:100D8000A7040E94A30488EC91E00E94A7040E949B
:100D9000A3040E94B50461E086E00E94460260E47C
:100DA00070E086E00E94EA038EE092E00E94A704D1
:100DB0000E94B5040E94A30461E086E00E944602FE
:100DC00060E086E00E94EC0161E085E00E9446025E
:100DD00060E470E085E00E94EA0383E392E00E9411
:100DE000A7040E94B5040E94A30461E085E00E946C
:100DF000460260E085E00E94EC0161E089E00E942B
:100E0000460260E470E089E00E94EA0389E592E02E
:100E10000E94A7040E94B5040E94A3048EE792E0FA
:100E20000E94A7040E94A30483E00E94C301892BAF
:100E3000D9F38EE892E00E94A7040E94A30484E103
:100E40000E942D04BC01990F880B990B0E94500B36
:100E50002FE832EC45EF5EE30E94B40B0E94180BC2
:100E60006B0187EA92E00E94C7040D2C000CEE088B
:100E7000FF08F7FE4AC06DE282E295E00E942D0174
:100E800022273327A9012C193D094E095F0919A210
:100E9000CE0181967C019AE0892E912CA12CB12C57
:100EA000CA01B901A50194010E94490C605DF701D6
:100EB00062937F01211531054105510589F7E11440
:100EC000F10419F0C7010E94960484EB92E00E949D
:100ED000A7040E94A30487EB92E00E94A7040E944B
:100EE000A3040E94B5040E94A3048CEF92E00E9428
:100EF000C70485E10E942D040A9714F56AE070E0AA
:100F000080E090E00E946404F4CFA701960119A24A
:100F1000CE0181967C018AE0882E912CA12CB12CE7
:100F2000CA01B901A50194010E94490C605DF70155
:100F300062937F01211531054105510589F7BFCF26
:100F40000E94C9040E94A30488E193E00E94A704C0
:100F50000E94A3040E94B50448EC50E060E070E0F9
:100F600080EA9FE00E9477028EE493E00E94A7044B
:100F70000E94A30468EC70E080E090E00E946404AA
:100F800086E793E00E94C70482E00E94C301892B98
:100F9000D9F382E00E94C301019749F40E94C90479
:100FA00064EF71E080E090E00E946404F2CF0E9460
:100FB000A3040E94D10483E993E00E94C7048EE059
:100FC0000E942D04893C91053CF06AE070E080E0CD
:100FD00090E00E946404F3CF0E94C9040E94A3041D
:100FE0000E94D10488E993E00E94C7048EE00E9429
:100FF0002D04883592403CF46AE070E080E090E097
:101000000E946404F3CF0E94C9040E94A3040E94BA
:10101000D1048EE993E00E94C7048FE00E942D0462
:10102000853B91053CF06AE070E080E090E00E9432
:101030006404F3CF0E94C9040E94A3040E94D10457
:1010400083EA93E00E94C7048FE00E942D04883554
:1010500092403CF46AE070E080E090E00E9464041A
:10106000F3CF0E94C9040E94A30486EA93E00E9481
:10107000C70480E10E942D04833291403CF06AE075
:1010800070E080E090E00E946404F3CF0E94C90405
:101090000E94A30480EC93E00E94C70480E10E94B8
:1010A0002D04803991403CF46AE070E080E090E0EB
:1010B0000E946404F3CF0E94C9040E94A30489ED36
:1010C00093E00E94C70481E10E942D048332914085
:1010D0003CF06AE070E080E090E00E946404F3CFAE
:1010E0000E94C9040E94A30482EF93E00E94C704F7
:1010F00081E10E942D04803991403CF46AE070E067
:1011000080E090E00E946404F3CF0E94C9040E9432
:10111000A3048BE094E00E94C70483E10E942D04A5
:10112000813991403CF06AE070E080E090E00E94FC
:101130006404F3CF0E94C9040E94A3048AE194E0EE
:101140000E94C7040E94D50482E10E942D04843FBE
:1011500091403CF46AE070E080E090E00E9464041A
:10116000F3CF0E94C9040E94A30484E294E00E9489
:10117000C7040E94D50487E00E94C301892B39F47B
:101180006AE070E080E090E00E946404F4CF0E9486
:10119000C9040E94A3048EE294E00E94C7040E9446
:1011A000D50487E00E94C301892B39F46AE070E01E
:1011B00080E090E00E946404F4CF0E94C9040E9481
:1011C000A30488E394E00E94C7040E94D50488E049
:1011D0000E94C301892B39F46AE070E080E090E05E
:1011E0000E946404F4CF0E94C9040E94A30482E414
:1011F00094E00E94A7040E94A30460ED77E080E0E1
:1012000090E00E94640486E694E00E94C7040E9475
:10121000D90483E00E94C301892B39F46AE070E0AD
:1012200080E090E00E946404F4CF0E94C9040E9410
:10123000A3048FE694E00E94C7040E94D90482E0D0
:101240000E94C301892B39F46AE070E080E090E0ED
:101250000E946404F4CF0E94C9040E94A30489E799
:1012600094E00E94C7040E94D90483E10E942D04E7
:10127000843F91403CF46AE070E080E090E00E949E
:101280006404F3CF0E94C9040E94A30482E894E09E
:101290000E94C7040E94D90482E10E942D04843F69
:1012A00091403CF46AE070E080E090E00E946404C9
:1012B000F3CF0E94C9040E94A3048BE894E00E942B
:1012C000C7040E94D90481E10E942D04843F91400B
:1012D0003CF46AE070E080E090E00E946404F3CFA8
:1012E0000E94C9040E94A30484E994E00E94C704F8
:1012F0000E94D90480E10E942D04843F91403CF477
:101300006AE070E080E090E00E946404F3CF0E9405
:10131000C9040E94A3048DE994E00E94C7040E94BE
:10132000D9048FE00E942D04843F91403CF46AE090
:1013300070E080E090E00E946404F3CF0E94C90452
:101340000E94A30486EA94E00E94C7040E94D90484
:101350008EE00E942D04843F91403CF46AE070E0EE
:1013600080E090E00E946404F3CF0E94C9040E94D0
:10137000A30480EB94E00E94A70460E08BE00E944D
:10138000EC0160E08CE00E94EC0160E08DE00E94E6
:10139000EC0160E089E00E94EC0160E085E00E94E1
:1013A000EC0160E086E00E94EC010E94A30483EE61
:1013B00094E00E94A70446E450E060E070E08DEE07
:1013C00091E00E94770266E470E080E090E00E9485
:1013D000640466E470E080E090E00E94640446E407
:1013E00050E060E070E08BED93E00E94770266E4ED
:1013F00070E080E090E00E94640466E470E080E0C9
:1014000090E00E94640446E450E060E070E083EE07
:1014100092E00E94770266E470E080E090E00E9433
:10142000640466E470E080E090E00E94640446E4B6
:1014300050E060E070E08EE692E00E94770266E4A1
:1014400070E080E090E00E94640466E470E080E078
:1014500090E00E94640446E450E060E070E08BEDB0
:1014600093E00E94770266E470E080E090E00E94E2
:10147000640446E450E060E070E083EE92E00E9495
:10148000770266E470E080E090E00E9464046DE81A
:1014900070E080E090E00E94640444ED50E060E081
:1014A00070E08EE692E00E94770264ED70E080E0EA
:1014B00090E00E94640466E470E080E090E00E94A6
:1014C000640446E450E060E070E08BE092E00E944B
:1014D000770266E470E080E090E00E94640466E4D5
:1014E00070E080E090E00E94640446E450E060E038
:1014F00070E086E194E00E94770266E470E080E0AC
:1015000090E00E94640466E470E080E090E00E9455
:10151000640446E450E060E070E08FE093E00E94F5
:10152000770266E470E080E090E00E94640466E484
:1015300070E080E090E00E94640446E450E060E0E7
:1015400070E083E992E00E94770266E470E080E058
:1015500090E00E94640466E470E080E090E00E9405
:10156000640446E450E060E070E086E194E00E94AC
:10157000770266E470E080E090E00E94640446E454
:1015800050E060E070E08FE093E00E94770266E454
:1015900070E080E090E00E9464046DE870E080E01C
:1015A00090E00E94640444ED50E060E070E083E964
:1015B00092E00E94770260E273E080E090E00E9497
:1015C00064048AE00E941A0268EE73E080E090E012
:1015D0000E946404F9CFE2E2F5E01382128288EE01
:1015E00093E0A0E0B0E084839583A683B78385E091
:1015F00091E09183808385EC90E09587848784ECEB
:1016000090E09787868780EC90E0918B808B81ECCF
:1016100090E0938B828B82EC90E0958B848B86ECB0
:1016200090E0978B868B118E128E138E148E0895F8
:101630000E941F0B6894B1110C94AE0B08950E9488
:10164000930B88F09F5798F0B92F9927B751B0F0B6
:10165000E1F0660F771F881F991F1AF0BA95C9F736
:1016600014C0B13091F00E94AD0BB1E008950C941C
:10167000AD0B672F782F8827B85F39F0B93FCCF3CF
:10168000869577956795B395D9F73EF490958095B3
:10169000709561957F4F8F4F9F4F0895E89409C0D3
:1016A00097FB3EF490958095709561957F4F8F4F95
:1016B0009F4F9923A9F0F92F96E9BB279395F695AB
:1016C000879577956795B795F111F8CFFAF4BB0F29
:1016D00011F460FF1BC06F5F7F4F8F4F9F4F16C08D
:1016E000882311F096E911C0772321F09EE8872F17
:1016F000762F05C0662371F096E8862F70E060E0D3
:101700002AF09A95660F771F881FDAF7880F96954B
:10171000879597F9089557FD9058440F551F59F034
:101720005F3F71F04795880F97FB991F61F09F3FCE
:1017300079F087950895121613061406551FF2CFF7
:101740004695F1DF08C0161617061806991FF1CF47
:1017500086957105610508940895E894BB2766276E
:101760007727CB0197F908950E94C70B0C94380C8A
:101770000E942A0C38F00E94310C20F0952311F0C1
:101780000C94210C0C94270C11240C94AE0B0E9489
:101790008B0B70F3959FC1F3950F50E0551F629F1F
:1017A000F001729FBB27F00DB11D639FAA27F00DBA
:1017B000B11DAA1F649F6627B00DA11D661F829FE1
:1017C0002227B00DA11D621F739FB00DA11D621FC6
:1017D000839FA00D611D221F749F3327A00D611DE3
:1017E000231F849F600D211D822F762F6A2F1124C5
:1017F0009F5750409AF0F1F088234AF0EE0FFF1FF8
:10180000BB1F661F771F881F91505040A9F79E3F4E
:10181000510580F00C94210C0C94AE0B5F3FE4F367
:10182000983ED4F3869577956795B795F795E795A4
:101830009F5FC1F7FE2B880F911D9695879597F9AD
:10184000089597F99F6780E870E060E008959FEF42
:1018500080EC089500240A94161617061806090647
:10186000089500240A941216130614060506089516
:10187000092E0394000C11F4882352F0BB0F40F49E
:10188000BF2B11F460FF04C06F5F7F4F8F4F9F4FDE
:101890000895A1E21A2EAA1BBB1BFD010DC0AA1FB1
:1018A000BB1FEE1FFF1FA217B307E407F50720F0C9
:1018B000A21BB30BE40BF50B661F771F881F991F44
:1018C0001A9469F760957095809590959B01AC018D
:1018D000BD01CF010895052E97FB1EF400940E94D0
:1018E000820C57FD07D00E94490C07FC03D04EF430
:1018F0000C94820C50954095309521953F4F4F4F59
:101900005F4F089590958095709561957F4F8F4FAB
:101910009F4F08950E949B0CA59F900DB49F900D22
:10192000A49F800D911D11240895EE0FFF1F0590B7
:10193000F491E02D0994A29FB001B39FC001A39F31
:10194000700D811D1124911DB29F700D811D1124F8
:10195000911D0895F894FFCFFF000000002D018D28
:1019600000BA007A01EB00C900DD000D0A005072D8
:1019700065737320535220746F20636F6E74696EA9
:101980007565000900205468697320776F726B7366
:10199000004D6F7665204A6F79737469636B2074AC
:1019A0006F200020616E6420746865202B562077BC
:1019B000697468207468652066696E6765722000C6
:1019C0002074686520636F6E6E6563746F7220614A
:1019D0006E642045636869646E6120737572666128
:1019E0006365002A2A2A20544553542050524F47F9
:1019F00052414D2045636869646E61576974652C76
:101A000020706C656173652053572053656C656366
:101A1000742053454E53206D6F6465202A2A2A0096
:101A2000546865206C656420477265656E20697333
:101A300020477265656E2C204F72616E6765206964
:101A400073204F72616E67652C2052656420697344
:101A5000205265643F2C20656C7365206D61726B4C
:101A6000204661696C00546865206C6564205247AB
:101A70004220697320426C75653F2C20656C73654C
:101A8000206D61726B204661696C00546865206C42
:101A900065642052474220697320477265656E3F36
:101AA0002C20656C7365206D61726B206661696CBA
:101AB00000546865206C6564205247422069732099
:101AC000526565643F2C20656C7365206D61726B97
:101AD000206661696C00506C656173652070726589
:101AE000737320534C0054686520535220616E205C
:101AF000534C2061726520776F726B696E6700547A
:101B0000656D7065726174757265200020430020F8
:101B100054686520496E6469636174656420746506
:101B20006D70657261747572652069732054656D9E
:101B3000702E20616D6269656E74206170726F78BD
:101B40002E3F2C2020656C7365206D61726B2046E2
:101B500061696C00737065616B696E6720746F20DA
:101B6000746865206D6963726F70686F6E652000C0
:101B7000205365742074686520766F6C756D6520E0
:101B8000706F74656E74696F6D6574657220746FC3
:101B90002074686520726967746820706F73736958
:101BA00074696F6E20004861766520796F752068D2
:101BB00065617264206120626565703F2C20656CF0
:101BC0007365206D61726B204661696C2000506CFA
:101BD00065617365207072657373204A6F797374E1
:101BE00069636B20627574746F6E004C45465400D7
:101BF000524947485400444F574E005550005261D7
:101C00006973652074686520504342207269677467
:101C10006820736964652000526169736520746887
:101C20006520504342206C656674207369646520AA
:101C300000526169736520746865205043422066D4
:101C4000726F6E74207369646500526169736520F8
:101C500074686520504342206261636B207369643D
:101C6000652000436F76657220746865204C44528D
:101C70002000546F75636820494E3400546F7563BB
:101C80006820494F3100546F75636820494F320016
:101C9000546F75636820494F33002A2A2A20706CDC
:101CA000656173652053572053656C656374204DDF
:101CB0004B4D4B206D6F646521202A2A2A00546FFA
:101CC00075636820443300546F7563682020443284
:101CD00000546F75636820413500546F7563682048
:101CE000413400546F75636820413300546F75634D
:101CF0006820413200546F75636820413100546F91
:101D000075636820413020002A2A2A454E44204F1E
:101D100046205448452054455354202A2A2A2C2032
:101D2000506C656173652053572053656C6563740F
:101D30002053454E53206D6F6465002A2A2A206681
:101D40006F722072657065617420746573742070A1
:101D500072657373205265736574202A2A2A000005
:101D6000FFFFFFFFFFFFFFFFFFFFFFFFFFFFFFFF83
:101D7000FFFFFFFFFFFFFFFFFFFFFFFFFFFFFFFF73
:101D8000FFFFFFFFFFFFFFFFFFFFFFFFFFFFFFFF63
:101D9000FFFFFFFFFFFFFFFFFFFFFFFFFFFFFFFF53
:107E000001C0ABC0112484B7882361F0982F9A7009
:107E1000923041F081FF02C097EF94BF282E80E09E
:107E2000BFD0EEC085E08093810082E08093C000E7
:107E300088E18093C10080E18093C40086E0809354
:107E4000C2008EE0ADD0259A84E020E33CEF91E0C3
:107E5000309385002093840096BBB09BFECF1D9A83
:107E6000A8954091C00047FD02C0815089F78CD091
:107E7000813461F489D0182F99D01238E9F0113883
:107E800011F488E001C083E078D064C0823411F43A
:107E900084E103C0853419F485E090D05BC085355A
:107EA00039F472D0C82F70D0D82FCC0FDD1F51C03D
:107EB000863521F484E082D080E0E6CF843661F517
:107EC00063D062D0D82E60D0F82E00E011E05CD0F4
:107ED000F80181938F01DE12FACF68D0F5E4FF122A
:107EE00001C0FFCF40E050E063E0CE0136D07E011C
:107EF00000E011E0F801419151918F0161E0C7016B
:107F00002CD0F2E0EF0EF11CD012F4CF40E050E0A4
:107F100065E0CE0122D01EC0843771F435D034D054
:107F2000F82E32D043D08E01F80185918F0125D0F3
:107F3000FA94F110F9CF0EC0853739F437D08EE1BD
:107F40001CD085E91AD08FE09FCF813511F488E0ED
:107F500027D02CD080E111D08ACFFC010A0167BF65
:107F6000E895112407B600FCFDCF667029F0452B7B
:107F700019F481E187BFE89508959091C00095FFBD
:107F8000FCCF8093C60008958091C00087FFFCCF8E
:107F90008091C00084FD01C0A8958091C60008951D
:107FA000E0E6F0E098E1908380830895EDDF803291
:107FB00019F088E0F5DFFFCF84E1DFCFCF93C82F42
:107FC000E3DFC150E9F7CF91F1CFFFFFFFFFFFFFE4
:107FD000FFFFFFFFFFFFFFFFFFFFFFFFFFFFFFFFB1
:107FE000FFFFFFFFFFFFFFFFFFFFFFFFFFFFFFFFA1
:107FF000FFFFFFFFFFFFFFFFFFFFFFFFFFFF000887
:00000001FF
